{"abi":[{"type":"constructor","inputs":[{"name":"supply","type":"uint256","internalType":"uint256"}],"stateMutability":"nonpayable"},{"type":"function","name":"allowance","inputs":[{"name":"owner","type":"address","internalType":"address"},{"name":"spender","type":"address","internalType":"address"}],"outputs":[{"name":"","type":"uint256","internalType":"uint256"}],"stateMutability":"view"},{"type":"function","name":"approve","inputs":[{"name":"spender","type":"address","internalType":"address"},{"name":"value","type":"uint256","internalType":"uint256"}],"outputs":[{"name":"","type":"bool","internalType":"bool"}],"stateMutability":"nonpayable"},{"type":"function","name":"balanceOf","inputs":[{"name":"account","type":"address","internalType":"address"}],"outputs":[{"name":"","type":"uint256","internalType":"uint256"}],"stateMutability":"view"},{"type":"function","name":"claimed","inputs":[{"name":"","type":"address","internalType":"address"}],"outputs":[{"name":"","type":"bool","internalType":"bool"}],"stateMutability":"view"},{"type":"function","name":"decimals","inputs":[],"outputs":[{"name":"","type":"uint8","internalType":"uint8"}],"stateMutability":"view"},{"type":"function","name":"faucet","inputs":[],"outputs":[],"stateMutability":"nonpayable"},{"type":"function","name":"lastClaim","inputs":[{"name":"","type":"address","internalType":"address"}],"outputs":[{"name":"","type":"uint256","internalType":"uint256"}],"stateMutability":"view"},{"type":"function","name":"name","inputs":[],"outputs":[{"name":"","type":"string","internalType":"string"}],"stateMutability":"view"},{"type":"function","name":"symbol","inputs":[],"outputs":[{"name":"","type":"string","internalType":"string"}],"stateMutability":"view"},{"type":"function","name":"totalSupply","inputs":[],"outputs":[{"name":"","type":"uint256","internalType":"uint256"}],"stateMutability":"view"},{"type":"function","name":"transfer","inputs":[{"name":"to","type":"address","internalType":"address"},{"name":"value","type":"uint256","internalType":"uint256"}],"outputs":[{"name":"","type":"bool","internalType":"bool"}],"stateMutability":"nonpayable"},{"type":"function","name":"transferFrom","inputs":[{"name":"from","type":"address","internalType":"address"},{"name":"to","type":"address","internalType":"address"},{"name":"value","type":"uint256","internalType":"uint256"}],"outputs":[{"name":"","type":"bool","internalType":"bool"}],"stateMutability":"nonpayable"},{"type":"event","name":"Approval","inputs":[{"name":"owner","type":"address","indexed":true,"internalType":"address"},{"name":"spender","type":"address","indexed":true,"internalType":"address"},{"name":"value","type":"uint256","indexed":false,"internalType":"uint256"}],"anonymous":false},{"type":"event","name":"Transfer","inputs":[{"name":"from","type":"address","indexed":true,"internalType":"address"},{"name":"to","type":"address","indexed":true,"internalType":"address"},{"name":"value","type":"uint256","indexed":false,"internalType":"uint256"}],"anonymous":false},{"type":"error","name":"ERC20InsufficientAllowance","inputs":[{"name":"spender","type":"address","internalType":"address"},{"name":"allowance","type":"uint256","internalType":"uint256"},{"name":"needed","type":"uint256","internalType":"uint256"}]},{"type":"error","name":"ERC20InsufficientBalance","inputs":[{"name":"sender","type":"address","internalType":"address"},{"name":"balance","type":"uint256","internalType":"uint256"},{"name":"needed","type":"uint256","internalType":"uint256"}]},{"type":"error","name":"ERC20InvalidApprover","inputs":[{"name":"approver","type":"address","internalType":"address"}]},{"type":"error","name":"ERC20InvalidReceiver","inputs":[{"name":"receiver","type":"address","internalType":"address"}]},{"type":"error","name":"ERC20InvalidSender","inputs":[{"name":"sender","type":"address","internalType":"address"}]},{"type":"error","name":"ERC20InvalidSpender","inputs":[{"name":"spender","type":"address","internalType":"address"}]}],"bytecode":{"object":"0x60806040523480156200001157600080fd5b5060405162001ded38038062001ded833981810160405281019062000037919062000412565b6040518060400160405280600881526020017f4172626946616b650000000000000000000000000000000000000000000000008152506040518060400160405280600581526020017f4146414b450000000000000000000000000000000000000000000000000000008152508160039081620000b49190620006b4565b508060049081620000c69190620006b4565b5050506200010533620000de6200010c60201b60201c565b600a620000ec91906200092b565b83620000f991906200097c565b6200011560201b60201c565b5062000acf565b60006012905090565b600073ffffffffffffffffffffffffffffffffffffffff168273ffffffffffffffffffffffffffffffffffffffff16036200018a5760006040517fec442f0500000000000000000000000000000000000000000000000000000000815260040162000181919062000a0c565b60405180910390fd5b6200019e60008383620001a260201b60201c565b5050565b600073ffffffffffffffffffffffffffffffffffffffff168373ffffffffffffffffffffffffffffffffffffffff1603620001f8578060026000828254620001eb919062000a29565b92505081905550620002ce565b60008060008573ffffffffffffffffffffffffffffffffffffffff1673ffffffffffffffffffffffffffffffffffffffff1681526020019081526020016000205490508181101562000287578381836040517fe450d38c0000000000000000000000000000000000000000000000000000000081526004016200027e9392919062000a75565b60405180910390fd5b8181036000808673ffffffffffffffffffffffffffffffffffffffff1673ffffffffffffffffffffffffffffffffffffffff16815260200190815260200160002081905550505b600073ffffffffffffffffffffffffffffffffffffffff168273ffffffffffffffffffffffffffffffffffffffff160362000319578060026000828254039250508190555062000366565b806000808473ffffffffffffffffffffffffffffffffffffffff1673ffffffffffffffffffffffffffffffffffffffff168152602001908152602001600020600082825401925050819055505b8173ffffffffffffffffffffffffffffffffffffffff168373ffffffffffffffffffffffffffffffffffffffff167fddf252ad1be2c89b69c2b068fc378daa952ba7f163c4a11628f55a4df523b3ef83604051620003c5919062000ab2565b60405180910390a3505050565b600080fd5b6000819050919050565b620003ec81620003d7565b8114620003f857600080fd5b50565b6000815190506200040c81620003e1565b92915050565b6000602082840312156200042b576200042a620003d2565b5b60006200043b84828501620003fb565b91505092915050565b600081519050919050565b7f4e487b7100000000000000000000000000000000000000000000000000000000600052604160045260246000fd5b7f4e487b7100000000000000000000000000000000000000000000000000000000600052602260045260246000fd5b60006002820490506001821680620004c657607f821691505b602082108103620004dc57620004db6200047e565b5b50919050565b60008190508160005260206000209050919050565b60006020601f8301049050919050565b600082821b905092915050565b600060088302620005467fffffffffffffffffffffffffffffffffffffffffffffffffffffffffffffffff8262000507565b62000552868362000507565b95508019841693508086168417925050509392505050565b6000819050919050565b6000620005956200058f6200058984620003d7565b6200056a565b620003d7565b9050919050565b6000819050919050565b620005b18362000574565b620005c9620005c0826200059c565b84845462000514565b825550505050565b600090565b620005e0620005d1565b620005ed818484620005a6565b505050565b5b81811015620006155762000609600082620005d6565b600181019050620005f3565b5050565b601f82111562000664576200062e81620004e2565b6200063984620004f7565b8101602085101562000649578190505b620006616200065885620004f7565b830182620005f2565b50505b505050565b600082821c905092915050565b6000620006896000198460080262000669565b1980831691505092915050565b6000620006a4838362000676565b9150826002028217905092915050565b620006bf8262000444565b67ffffffffffffffff811115620006db57620006da6200044f565b5b620006e78254620004ad565b620006f482828562000619565b600060209050601f8311600181146200072c576000841562000717578287015190505b62000723858262000696565b86555062000793565b601f1984166200073c86620004e2565b60005b8281101562000766578489015182556001820191506020850194506020810190506200073f565b8683101562000786578489015162000782601f89168262000676565b8355505b6001600288020188555050505b505050505050565b7f4e487b7100000000000000000000000000000000000000000000000000000000600052601160045260246000fd5b60008160011c9050919050565b6000808291508390505b600185111562000829578086048111156200080157620008006200079b565b5b6001851615620008115780820291505b80810290506200082185620007ca565b9450620007e1565b94509492505050565b60008262000844576001905062000917565b8162000854576000905062000917565b81600181146200086d57600281146200087857620008ae565b600191505062000917565b60ff8411156200088d576200088c6200079b565b5b8360020a915084821115620008a757620008a66200079b565b5b5062000917565b5060208310610133831016604e8410600b8410161715620008e85782820a905083811115620008e257620008e16200079b565b5b62000917565b620008f78484846001620007d7565b925090508184048111156200091157620009106200079b565b5b81810290505b9392505050565b600060ff82169050919050565b60006200093882620003d7565b915062000945836200091e565b9250620009747fffffffffffffffffffffffffffffffffffffffffffffffffffffffffffffffff848462000832565b905092915050565b60006200098982620003d7565b91506200099683620003d7565b9250828202620009a681620003d7565b91508282048414831517620009c057620009bf6200079b565b5b5092915050565b600073ffffffffffffffffffffffffffffffffffffffff82169050919050565b6000620009f482620009c7565b9050919050565b62000a0681620009e7565b82525050565b600060208201905062000a236000830184620009fb565b92915050565b600062000a3682620003d7565b915062000a4383620003d7565b925082820190508082111562000a5e5762000a5d6200079b565b5b92915050565b62000a6f81620003d7565b82525050565b600060608201905062000a8c6000830186620009fb565b62000a9b602083018562000a64565b62000aaa604083018462000a64565b949350505050565b600060208201905062000ac9600083018462000a64565b92915050565b61130e8062000adf6000396000f3fe608060405234801561001057600080fd5b50600436106100b45760003560e01c806370a082311161007157806370a08231146101a357806395d89b41146101d3578063a9059cbb146101f1578063c884ef8314610221578063dd62ed3e14610251578063de5f72fd14610281576100b4565b806306fdde03146100b9578063095ea7b3146100d757806318160ddd1461010757806323b872dd14610125578063313ce567146101555780635c16e15e14610173575b600080fd5b6100c161028b565b6040516100ce9190610d02565b60405180910390f35b6100f160048036038101906100ec9190610dbd565b61031d565b6040516100fe9190610e18565b60405180910390f35b61010f610340565b60405161011c9190610e42565b60405180910390f35b61013f600480360381019061013a9190610e5d565b61034a565b60405161014c9190610e18565b60405180910390f35b61015d610379565b60405161016a9190610ecc565b60405180910390f35b61018d60048036038101906101889190610ee7565b610382565b60405161019a9190610e42565b60405180910390f35b6101bd60048036038101906101b89190610ee7565b61039a565b6040516101ca9190610e42565b60405180910390f35b6101db6103e2565b6040516101e89190610d02565b60405180910390f35b61020b60048036038101906102069190610dbd565b610474565b6040516102189190610e18565b60405180910390f35b61023b60048036038101906102369190610ee7565b610497565b6040516102489190610e18565b60405180910390f35b61026b60048036038101906102669190610f14565b6104b7565b6040516102789190610e42565b60405180910390f35b61028961053e565b005b60606003805461029a90610f83565b80601f01602080910402602001604051908101604052809291908181526020018280546102c690610f83565b80156103135780601f106102e857610100808354040283529160200191610313565b820191906000526020600020905b8154815290600101906020018083116102f657829003601f168201915b5050505050905090565b600080610328610651565b9050610335818585610659565b600191505092915050565b6000600254905090565b600080610355610651565b905061036285828561066b565b61036d858585610700565b60019150509392505050565b60006012905090565b60066020528060005260406000206000915090505481565b60008060008373ffffffffffffffffffffffffffffffffffffffff1673ffffffffffffffffffffffffffffffffffffffff168152602001908152602001600020549050919050565b6060600480546103f190610f83565b80601f016020809104026020016040519081016040528092919081815260200182805461041d90610f83565b801561046a5780601f1061043f5761010080835404028352916020019161046a565b820191906000526020600020905b81548152906001019060200180831161044d57829003601f168201915b5050505050905090565b60008061047f610651565b905061048c818585610700565b600191505092915050565b60056020528060005260406000206000915054906101000a900460ff1681565b6000600160008473ffffffffffffffffffffffffffffffffffffffff1673ffffffffffffffffffffffffffffffffffffffff16815260200190815260200160002060008373ffffffffffffffffffffffffffffffffffffffff1673ffffffffffffffffffffffffffffffffffffffff16815260200190815260200160002054905092915050565b62015180600660003373ffffffffffffffffffffffffffffffffffffffff1673ffffffffffffffffffffffffffffffffffffffff168152602001908152602001600020544261058d9190610fe3565b10156105ce576040517f08c379a00000000000000000000000000000000000000000000000000000000081526004016105c590611063565b60405180910390fd5b6001600560003373ffffffffffffffffffffffffffffffffffffffff1673ffffffffffffffffffffffffffffffffffffffff16815260200190815260200160002060006101000a81548160ff02191690831515021790555061064f33610632610379565b600a61063e91906111b6565b600a61064a9190611201565b6107f4565b565b600033905090565b6106668383836001610876565b505050565b600061067784846104b7565b90507fffffffffffffffffffffffffffffffffffffffffffffffffffffffffffffffff8110156106fa57818110156106ea578281836040517ffb8f41b20000000000000000000000000000000000000000000000000000000081526004016106e193929190611252565b60405180910390fd5b6106f984848484036000610876565b5b50505050565b600073ffffffffffffffffffffffffffffffffffffffff168373ffffffffffffffffffffffffffffffffffffffff16036107725760006040517f96c6fd1e0000000000000000000000000000000000000000000000000000000081526004016107699190611289565b60405180910390fd5b600073ffffffffffffffffffffffffffffffffffffffff168273ffffffffffffffffffffffffffffffffffffffff16036107e45760006040517fec442f050000000000000000000000000000000000000000000000000000000081526004016107db9190611289565b60405180910390fd5b6107ef838383610a4d565b505050565b600073ffffffffffffffffffffffffffffffffffffffff168273ffffffffffffffffffffffffffffffffffffffff16036108665760006040517fec442f0500000000000000000000000000000000000000000000000000000000815260040161085d9190611289565b60405180910390fd5b61087260008383610a4d565b5050565b600073ffffffffffffffffffffffffffffffffffffffff168473ffffffffffffffffffffffffffffffffffffffff16036108e85760006040517fe602df050000000000000000000000000000000000000000000000000000000081526004016108df9190611289565b60405180910390fd5b600073ffffffffffffffffffffffffffffffffffffffff168373ffffffffffffffffffffffffffffffffffffffff160361095a5760006040517f94280d620000000000000000000000000000000000000000000000000000000081526004016109519190611289565b60405180910390fd5b81600160008673ffffffffffffffffffffffffffffffffffffffff1673ffffffffffffffffffffffffffffffffffffffff16815260200190815260200160002060008573ffffffffffffffffffffffffffffffffffffffff1673ffffffffffffffffffffffffffffffffffffffff168152602001908152602001600020819055508015610a47578273ffffffffffffffffffffffffffffffffffffffff168473ffffffffffffffffffffffffffffffffffffffff167f8c5be1e5ebec7d5bd14f71427d1e84f3dd0314c0f7b2291e5b200ac8c7c3b92584604051610a3e9190610e42565b60405180910390a35b50505050565b600073ffffffffffffffffffffffffffffffffffffffff168373ffffffffffffffffffffffffffffffffffffffff1603610a9f578060026000828254610a9391906112a4565b92505081905550610b72565b60008060008573ffffffffffffffffffffffffffffffffffffffff1673ffffffffffffffffffffffffffffffffffffffff16815260200190815260200160002054905081811015610b2b578381836040517fe450d38c000000000000000000000000000000000000000000000000000000008152600401610b2293929190611252565b60405180910390fd5b8181036000808673ffffffffffffffffffffffffffffffffffffffff1673ffffffffffffffffffffffffffffffffffffffff16815260200190815260200160002081905550505b600073ffffffffffffffffffffffffffffffffffffffff168273ffffffffffffffffffffffffffffffffffffffff1603610bbb5780600260008282540392505081905550610c08565b806000808473ffffffffffffffffffffffffffffffffffffffff1673ffffffffffffffffffffffffffffffffffffffff168152602001908152602001600020600082825401925050819055505b8173ffffffffffffffffffffffffffffffffffffffff168373ffffffffffffffffffffffffffffffffffffffff167fddf252ad1be2c89b69c2b068fc378daa952ba7f163c4a11628f55a4df523b3ef83604051610c659190610e42565b60405180910390a3505050565b600081519050919050565b600082825260208201905092915050565b60005b83811015610cac578082015181840152602081019050610c91565b60008484015250505050565b6000601f19601f8301169050919050565b6000610cd482610c72565b610cde8185610c7d565b9350610cee818560208601610c8e565b610cf781610cb8565b840191505092915050565b60006020820190508181036000830152610d1c8184610cc9565b905092915050565b600080fd5b600073ffffffffffffffffffffffffffffffffffffffff82169050919050565b6000610d5482610d29565b9050919050565b610d6481610d49565b8114610d6f57600080fd5b50565b600081359050610d8181610d5b565b92915050565b6000819050919050565b610d9a81610d87565b8114610da557600080fd5b50565b600081359050610db781610d91565b92915050565b60008060408385031215610dd457610dd3610d24565b5b6000610de285828601610d72565b9250506020610df385828601610da8565b9150509250929050565b60008115159050919050565b610e1281610dfd565b82525050565b6000602082019050610e2d6000830184610e09565b92915050565b610e3c81610d87565b82525050565b6000602082019050610e576000830184610e33565b92915050565b600080600060608486031215610e7657610e75610d24565b5b6000610e8486828701610d72565b9350506020610e9586828701610d72565b9250506040610ea686828701610da8565b9150509250925092565b600060ff82169050919050565b610ec681610eb0565b82525050565b6000602082019050610ee16000830184610ebd565b92915050565b600060208284031215610efd57610efc610d24565b5b6000610f0b84828501610d72565b91505092915050565b60008060408385031215610f2b57610f2a610d24565b5b6000610f3985828601610d72565b9250506020610f4a85828601610d72565b9150509250929050565b7f4e487b7100000000000000000000000000000000000000000000000000000000600052602260045260246000fd5b60006002820490506001821680610f9b57607f821691505b602082108103610fae57610fad610f54565b5b50919050565b7f4e487b7100000000000000000000000000000000000000000000000000000000600052601160045260246000fd5b6000610fee82610d87565b9150610ff983610d87565b925082820390508181111561101157611010610fb4565b5b92915050565b7f436c61696d206f6e636520706572206461790000000000000000000000000000600082015250565b600061104d601283610c7d565b915061105882611017565b602082019050919050565b6000602082019050818103600083015261107c81611040565b9050919050565b60008160011c9050919050565b6000808291508390505b60018511156110da578086048111156110b6576110b5610fb4565b5b60018516156110c55780820291505b80810290506110d385611083565b945061109a565b94509492505050565b6000826110f357600190506111af565b8161110157600090506111af565b8160018114611117576002811461112157611150565b60019150506111af565b60ff84111561113357611132610fb4565b5b8360020a91508482111561114a57611149610fb4565b5b506111af565b5060208310610133831016604e8410600b84101617156111855782820a9050838111156111805761117f610fb4565b5b6111af565b6111928484846001611090565b925090508184048111156111a9576111a8610fb4565b5b81810290505b9392505050565b60006111c182610d87565b91506111cc83610eb0565b92506111f97fffffffffffffffffffffffffffffffffffffffffffffffffffffffffffffffff84846110e3565b905092915050565b600061120c82610d87565b915061121783610d87565b925082820261122581610d87565b9150828204841483151761123c5761123b610fb4565b5b5092915050565b61124c81610d49565b82525050565b60006060820190506112676000830186611243565b6112746020830185610e33565b6112816040830184610e33565b949350505050565b600060208201905061129e6000830184611243565b92915050565b60006112af82610d87565b91506112ba83610d87565b92508282019050808211156112d2576112d1610fb4565b5b9291505056fea264697066735822122058b822f86d586000f355680c26e96b2c463a2cead10b6536ff87d5e060fa6f1664736f6c63430008140033","linkReferences":{}},"methodIdentifiers":{"allowance(address,address)":"dd62ed3e","approve(address,uint256)":"095ea7b3","balanceOf(address)":"70a08231","claimed(address)":"c884ef83","decimals()":"313ce567","faucet()":"de5f72fd","lastClaim(address)":"5c16e15e","name()":"06fdde03","symbol()":"95d89b41","totalSupply()":"18160ddd","transfer(address,uint256)":"a9059cbb","transferFrom(address,address,uint256)":"23b872dd"},"id":21}