{"abi":[{"type":"constructor","inputs":[{"name":"_arbiFake","type":"address","internalType":"address"},{"name":"_dogeFake","type":"address","internalType":"address"},{"name":"_rate","type":"uint256","internalType":"uint256"}],"stateMutability":"nonpayable"},{"type":"function","name":"arbiFake","inputs":[],"outputs":[{"name":"","type":"address","internalType":"contract IERC20"}],"stateMutability":"view"},{"type":"function","name":"dogeFake","inputs":[],"outputs":[{"name":"","type":"address","internalType":"contract IERC20"}],"stateMutability":"view"},{"type":"function","name":"owner","inputs":[],"outputs":[{"name":"","type":"address","internalType":"address"}],"stateMutability":"view"},{"type":"function","name":"rate","inputs":[],"outputs":[{"name":"","type":"uint256","internalType":"uint256"}],"stateMutability":"view"},{"type":"function","name":"setRate","inputs":[{"name":"_rate","type":"uint256","internalType":"uint256"}],"outputs":[],"stateMutability":"nonpayable"},{"type":"function","name":"swapArbiToDoge","inputs":[{"name":"arbiAmount","type":"uint256","internalType":"uint256"}],"outputs":[],"stateMutability":"nonpayable"},{"type":"function","name":"swapDogeToArbi","inputs":[{"name":"dogeAmount","type":"uint256","internalType":"uint256"}],"outputs":[],"stateMutability":"nonpayable"},{"type":"function","name":"withdraw","inputs":[{"name":"token","type":"address","internalType":"address"},{"name":"amount","type":"uint256","internalType":"uint256"}],"outputs":[],"stateMutability":"nonpayable"},{"type":"event","name":"Swap","inputs":[{"name":"user","type":"address","indexed":true,"internalType":"address"},{"name":"fromToken","type":"address","indexed":false,"internalType":"address"},{"name":"toToken","type":"address","indexed":false,"internalType":"address"},{"name":"fromAmount","type":"uint256","indexed":false,"internalType":"uint256"},{"name":"toAmount","type":"uint256","indexed":false,"internalType":"uint256"}],"anonymous":false}],"bytecode":{"object":"0x60806040523480156200001157600080fd5b5060405162001255380380620012558339818101604052810190620000379190620001ae565b826000806101000a81548173ffffffffffffffffffffffffffffffffffffffff021916908373ffffffffffffffffffffffffffffffffffffffff16021790555081600160006101000a81548173ffffffffffffffffffffffffffffffffffffffff021916908373ffffffffffffffffffffffffffffffffffffffff16021790555033600260006101000a81548173ffffffffffffffffffffffffffffffffffffffff021916908373ffffffffffffffffffffffffffffffffffffffff160217905550806003819055505050506200020a565b600080fd5b600073ffffffffffffffffffffffffffffffffffffffff82169050919050565b60006200013b826200010e565b9050919050565b6200014d816200012e565b81146200015957600080fd5b50565b6000815190506200016d8162000142565b92915050565b6000819050919050565b620001888162000173565b81146200019457600080fd5b50565b600081519050620001a8816200017d565b92915050565b600080600060608486031215620001ca57620001c962000109565b5b6000620001da868287016200015c565b9350506020620001ed868287016200015c565b9250506040620002008682870162000197565b9150509250925092565b61103b806200021a6000396000f3fe608060405234801561001057600080fd5b50600436106100875760003560e01c806385fd901e1161005b57806385fd901e146101005780638da5cb5b1461011c578063b3192aae1461013a578063f3fef3a31461015857610087565b806206445d1461008c5780630f58480f146100aa5780632c4e722e146100c657806334fcf437146100e4575b600080fd5b610094610174565b6040516100a19190610ac6565b60405180910390f35b6100c460048036038101906100bf9190610b1c565b61019a565b005b6100ce6104e0565b6040516100db9190610b58565b60405180910390f35b6100fe60048036038101906100f99190610b1c565b6104e6565b005b61011a60048036038101906101159190610b1c565b610580565b005b6101246108c8565b6040516101319190610b94565b60405180910390f35b6101426108ee565b60405161014f9190610ac6565b60405180910390f35b610172600480360381019061016d9190610bdb565b610912565b005b600160009054906101000a900473ffffffffffffffffffffffffffffffffffffffff1681565b6000600354826101aa9190610c4a565b90508060008054906101000a900473ffffffffffffffffffffffffffffffffffffffff1673ffffffffffffffffffffffffffffffffffffffff166370a08231306040518263ffffffff1660e01b81526004016102069190610b94565b602060405180830381865afa158015610223573d6000803e3d6000fd5b505050506040513d601f19601f820116820180604052508101906102479190610ca1565b1015610288576040517f08c379a000000000000000000000000000000000000000000000000000000000815260040161027f90610d2b565b60405180910390fd5b600160009054906101000a900473ffffffffffffffffffffffffffffffffffffffff1673ffffffffffffffffffffffffffffffffffffffff166323b872dd3330856040518463ffffffff1660e01b81526004016102e793929190610d4b565b6020604051808303816000875af1158015610306573d6000803e3d6000fd5b505050506040513d601f19601f8201168201806040525081019061032a9190610dba565b610369576040517f08c379a000000000000000000000000000000000000000000000000000000000815260040161036090610e33565b60405180910390fd5b60008054906101000a900473ffffffffffffffffffffffffffffffffffffffff1673ffffffffffffffffffffffffffffffffffffffff1663a9059cbb33836040518363ffffffff1660e01b81526004016103c4929190610e53565b6020604051808303816000875af11580156103e3573d6000803e3d6000fd5b505050506040513d601f19601f820116820180604052508101906104079190610dba565b610446576040517f08c379a000000000000000000000000000000000000000000000000000000000815260040161043d90610ec8565b60405180910390fd5b3373ffffffffffffffffffffffffffffffffffffffff167fcd3829a3813dc3cdd188fd3d01dcf3268c16be2fdd2dd21d0665418816e46062600160009054906101000a900473ffffffffffffffffffffffffffffffffffffffff1660008054906101000a900473ffffffffffffffffffffffffffffffffffffffff1685856040516104d49493929190610ee8565b60405180910390a25050565b60035481565b600260009054906101000a900473ffffffffffffffffffffffffffffffffffffffff1673ffffffffffffffffffffffffffffffffffffffff163373ffffffffffffffffffffffffffffffffffffffff1614610576576040517f08c379a000000000000000000000000000000000000000000000000000000000815260040161056d90610f79565b60405180910390fd5b8060038190555050565b6000600354826105909190610c4a565b905080600160009054906101000a900473ffffffffffffffffffffffffffffffffffffffff1673ffffffffffffffffffffffffffffffffffffffff166370a08231306040518263ffffffff1660e01b81526004016105ee9190610b94565b602060405180830381865afa15801561060b573d6000803e3d6000fd5b505050506040513d601f19601f8201168201806040525081019061062f9190610ca1565b1015610670576040517f08c379a000000000000000000000000000000000000000000000000000000000815260040161066790610fe5565b60405180910390fd5b60008054906101000a900473ffffffffffffffffffffffffffffffffffffffff1673ffffffffffffffffffffffffffffffffffffffff166323b872dd3330856040518463ffffffff1660e01b81526004016106cd93929190610d4b565b6020604051808303816000875af11580156106ec573d6000803e3d6000fd5b505050506040513d601f19601f820116820180604052508101906107109190610dba565b61074f576040517f08c379a000000000000000000000000000000000000000000000000000000000815260040161074690610ec8565b60405180910390fd5b600160009054906101000a900473ffffffffffffffffffffffffffffffffffffffff1673ffffffffffffffffffffffffffffffffffffffff1663a9059cbb33836040518363ffffffff1660e01b81526004016107ac929190610e53565b6020604051808303816000875af11580156107cb573d6000803e3d6000fd5b505050506040513d601f19601f820116820180604052508101906107ef9190610dba565b61082e576040517f08c379a000000000000000000000000000000000000000000000000000000000815260040161082590610e33565b60405180910390fd5b3373ffffffffffffffffffffffffffffffffffffffff167fcd3829a3813dc3cdd188fd3d01dcf3268c16be2fdd2dd21d0665418816e4606260008054906101000a900473ffffffffffffffffffffffffffffffffffffffff16600160009054906101000a900473ffffffffffffffffffffffffffffffffffffffff1685856040516108bc9493929190610ee8565b60405180910390a25050565b600260009054906101000a900473ffffffffffffffffffffffffffffffffffffffff1681565b60008054906101000a900473ffffffffffffffffffffffffffffffffffffffff1681565b600260009054906101000a900473ffffffffffffffffffffffffffffffffffffffff1673ffffffffffffffffffffffffffffffffffffffff163373ffffffffffffffffffffffffffffffffffffffff16146109a2576040517f08c379a000000000000000000000000000000000000000000000000000000000815260040161099990610f79565b60405180910390fd5b8173ffffffffffffffffffffffffffffffffffffffff1663a9059cbb600260009054906101000a900473ffffffffffffffffffffffffffffffffffffffff16836040518363ffffffff1660e01b81526004016109ff929190610e53565b6020604051808303816000875af1158015610a1e573d6000803e3d6000fd5b505050506040513d601f19601f82011682018060405250810190610a429190610dba565b505050565b600073ffffffffffffffffffffffffffffffffffffffff82169050919050565b6000819050919050565b6000610a8c610a87610a8284610a47565b610a67565b610a47565b9050919050565b6000610a9e82610a71565b9050919050565b6000610ab082610a93565b9050919050565b610ac081610aa5565b82525050565b6000602082019050610adb6000830184610ab7565b92915050565b600080fd5b6000819050919050565b610af981610ae6565b8114610b0457600080fd5b50565b600081359050610b1681610af0565b92915050565b600060208284031215610b3257610b31610ae1565b5b6000610b4084828501610b07565b91505092915050565b610b5281610ae6565b82525050565b6000602082019050610b6d6000830184610b49565b92915050565b6000610b7e82610a47565b9050919050565b610b8e81610b73565b82525050565b6000602082019050610ba96000830184610b85565b92915050565b610bb881610b73565b8114610bc357600080fd5b50565b600081359050610bd581610baf565b92915050565b60008060408385031215610bf257610bf1610ae1565b5b6000610c0085828601610bc6565b9250506020610c1185828601610b07565b9150509250929050565b7f4e487b7100000000000000000000000000000000000000000000000000000000600052601160045260246000fd5b6000610c5582610ae6565b9150610c6083610ae6565b9250828202610c6e81610ae6565b91508282048414831517610c8557610c84610c1b565b5b5092915050565b600081519050610c9b81610af0565b92915050565b600060208284031215610cb757610cb6610ae1565b5b6000610cc584828501610c8c565b91505092915050565b600082825260208201905092915050565b7f4e6f7420656e6f75676874206172626946616b6520696e204445580000000000600082015250565b6000610d15601b83610cce565b9150610d2082610cdf565b602082019050919050565b60006020820190508181036000830152610d4481610d08565b9050919050565b6000606082019050610d606000830186610b85565b610d6d6020830185610b85565b610d7a6040830184610b49565b949350505050565b60008115159050919050565b610d9781610d82565b8114610da257600080fd5b50565b600081519050610db481610d8e565b92915050565b600060208284031215610dd057610dcf610ae1565b5b6000610dde84828501610da5565b91505092915050565b7f646f676546616b65207472616e73666572206661696c65640000000000000000600082015250565b6000610e1d601883610cce565b9150610e2882610de7565b602082019050919050565b60006020820190508181036000830152610e4c81610e10565b9050919050565b6000604082019050610e686000830185610b85565b610e756020830184610b49565b9392505050565b7f6172626946616b65207472616e73666572206661696c65640000000000000000600082015250565b6000610eb2601883610cce565b9150610ebd82610e7c565b602082019050919050565b60006020820190508181036000830152610ee181610ea5565b9050919050565b6000608082019050610efd6000830187610b85565b610f0a6020830186610b85565b610f176040830185610b49565b610f246060830184610b49565b95945050505050565b7f4e6f74206f776e65720000000000000000000000000000000000000000000000600082015250565b6000610f63600983610cce565b9150610f6e82610f2d565b602082019050919050565b60006020820190508181036000830152610f9281610f56565b9050919050565b7f4e6f7420656e6f75676820646f676546616b6520696e20444558000000000000600082015250565b6000610fcf601a83610cce565b9150610fda82610f99565b602082019050919050565b60006020820190508181036000830152610ffe81610fc2565b905091905056fea2646970667358221220581f3cfbc189db2502264db14245253e8fd52daf5688a199b61d2962309fb76664736f6c63430008140033","linkReferences":{}},"methodIdentifiers":{"arbiFake()":"b3192aae","dogeFake()":"0006445d","owner()":"8da5cb5b","rate()":"2c4e722e","setRate(uint256)":"34fcf437","swapArbiToDoge(uint256)":"85fd901e","swapDogeToArbi(uint256)":"0f58480f","withdraw(address,uint256)":"f3fef3a3"},"id":23}