{
  "contractName": "Crowdfunding",
  "abi": [
    {
      "anonymous": false,
      "inputs": [
        {
          "indexed": false,
          "internalType": "uint256",
          "name": "id",
          "type": "uint256"
        },
        {
          "indexed": false,
          "internalType": "string",
          "name": "title",
          "type": "string"
        },
        {
          "indexed": false,
          "internalType": "uint256",
          "name": "goal",
          "type": "uint256"
        }
      ],
      "name": "CampaignCreated",
      "type": "event"
    },
    {
      "anonymous": false,
      "inputs": [
        {
          "indexed": false,
          "internalType": "uint256",
          "name": "id",
          "type": "uint256"
        },
        {
          "indexed": false,
          "internalType": "address",
          "name": "contributor",
          "type": "address"
        },
        {
          "indexed": false,
          "internalType": "uint256",
          "name": "amount",
          "type": "uint256"
        }
      ],
      "name": "Funded",
      "type": "event"
    },
    {
      "anonymous": false,
      "inputs": [
        {
          "indexed": false,
          "internalType": "uint256",
          "name": "id",
          "type": "uint256"
        }
      ],
      "name": "GoalReached",
      "type": "event"
    },
    {
      "inputs": [
        {
          "internalType": "uint256",
          "name": "",
          "type": "uint256"
        }
      ],
      "name": "campaigns",
      "outputs": [
        {
          "internalType": "address payable",
          "name": "owner",
          "type": "address"
        },
        {
          "internalType": "string",
          "name": "title",
          "type": "string"
        },
        {
          "internalType": "string",
          "name": "description",
          "type": "string"
        },
        {
          "internalType": "uint256",
          "name": "goal",
          "type": "uint256"
        },
        {
          "internalType": "uint256",
          "name": "amountRaised",
          "type": "uint256"
        },
        {
          "internalType": "bool",
          "name": "completed",
          "type": "bool"
        }
      ],
      "stateMutability": "view",
      "type": "function",
      "constant": true
    },
    {
      "inputs": [
        {
          "internalType": "string",
          "name": "_title",
          "type": "string"
        },
        {
          "internalType": "string",
          "name": "_desc",
          "type": "string"
        },
        {
          "internalType": "uint256",
          "name": "_goal",
          "type": "uint256"
        }
      ],
      "name": "createCampaign",
      "outputs": [],
      "stateMutability": "nonpayable",
      "type": "function"
    },
    {
      "inputs": [
        {
          "internalType": "uint256",
          "name": "_id",
          "type": "uint256"
        }
      ],
      "name": "fund",
      "outputs": [],
      "stateMutability": "payable",
      "type": "function",
      "payable": true
    },
    {
      "inputs": [],
      "name": "getCampaigns",
      "outputs": [
        {
          "components": [
            {
              "internalType": "address payable",
              "name": "owner",
              "type": "address"
            },
            {
              "internalType": "string",
              "name": "title",
              "type": "string"
            },
            {
              "internalType": "string",
              "name": "description",
              "type": "string"
            },
            {
              "internalType": "uint256",
              "name": "goal",
              "type": "uint256"
            },
            {
              "internalType": "uint256",
              "name": "amountRaised",
              "type": "uint256"
            },
            {
              "internalType": "bool",
              "name": "completed",
              "type": "bool"
            }
          ],
          "internalType": "struct Crowdfunding.Campaign[]",
          "name": "",
          "type": "tuple[]"
        }
      ],
      "stateMutability": "view",
      "type": "function",
      "constant": true
    }
  ],
  "bytecode": "0x608060405234801561000f575f80fd5b506112598061001d5f395ff3fe60806040526004361061003e575f3560e01c8063141961bc14610042578063a6b0363314610083578063ca1d209d146100ad578063ffa56a57146100c9575b5f80fd5b34801561004d575f80fd5b50610068600480360381019061006391906107f2565b6100f1565b60405161007a9695949392919061090f565b60405180910390f35b34801561008e575f80fd5b5061009761026e565b6040516100a49190610b39565b60405180910390f35b6100c760048036038101906100c291906107f2565b61046b565b005b3480156100d4575f80fd5b506100ef60048036038101906100ea9190610c85565b61060b565b005b5f81815481106100ff575f80fd5b905f5260205f2090600602015f91509050805f015f9054906101000a900473ffffffffffffffffffffffffffffffffffffffff169080600101805461014390610d3a565b80601f016020809104026020016040519081016040528092919081815260200182805461016f90610d3a565b80156101ba5780601f10610191576101008083540402835291602001916101ba565b820191905f5260205f20905b81548152906001019060200180831161019d57829003601f168201915b5050505050908060020180546101cf90610d3a565b80601f01602080910402602001604051908101604052809291908181526020018280546101fb90610d3a565b80156102465780601f1061021d57610100808354040283529160200191610246565b820191905f5260205f20905b81548152906001019060200180831161022957829003601f168201915b505050505090806003015490806004015490806005015f9054906101000a900460ff16905086565b60605f805480602002602001604051908101604052809291908181526020015f905b82821015610462578382905f5260205f2090600602016040518060c00160405290815f82015f9054906101000a900473ffffffffffffffffffffffffffffffffffffffff1673ffffffffffffffffffffffffffffffffffffffff1673ffffffffffffffffffffffffffffffffffffffff16815260200160018201805461031590610d3a565b80601f016020809104026020016040519081016040528092919081815260200182805461034190610d3a565b801561038c5780601f106103635761010080835404028352916020019161038c565b820191905f5260205f20905b81548152906001019060200180831161036f57829003601f168201915b505050505081526020016002820180546103a590610d3a565b80601f01602080910402602001604051908101604052809291908181526020018280546103d190610d3a565b801561041c5780601f106103f35761010080835404028352916020019161041c565b820191905f5260205f20905b8154815290600101906020018083116103ff57829003601f168201915b505050505081526020016003820154815260200160048201548152602001600582015f9054906101000a900460ff16151515158152505081526020019060010190610290565b50505050905090565b5f80828154811061047f5761047e610d6a565b5b905f5260205f2090600602019050806005015f9054906101000a900460ff16156104de576040517f08c379a00000000000000000000000000000000000000000000000000000000081526004016104d590610de1565b60405180910390fd5b5f3411610520576040517f08c379a000000000000000000000000000000000000000000000000000000000815260040161051790610e49565b60405180910390fd5b34816004015f8282546105339190610e94565b925050819055508060030154816004015410610607576001816005015f6101000a81548160ff021916908315150217905550805f015f9054906101000a900473ffffffffffffffffffffffffffffffffffffffff1673ffffffffffffffffffffffffffffffffffffffff166108fc826004015490811502906040515f60405180830381858888f193505050501580156105ce573d5f803e3d5ffd5b507ffbfd8ab7c24300fa9888cd721c8565a7da56759384781283684dcf7c7c4a846b826040516105fe9190610ec7565b60405180910390a15b5050565b5f811161064d576040517f08c379a000000000000000000000000000000000000000000000000000000000815260040161064490610f2a565b60405180910390fd5b5f6040518060c001604052803373ffffffffffffffffffffffffffffffffffffffff1681526020018581526020018481526020018381526020015f81526020015f1515815250908060018154018082558091505060019003905f5260205f2090600602015f909190919091505f820151815f015f6101000a81548173ffffffffffffffffffffffffffffffffffffffff021916908373ffffffffffffffffffffffffffffffffffffffff160217905550602082015181600101908161071291906110e5565b50604082015181600201908161072891906110e5565b50606082015181600301556080820151816004015560a0820151816005015f6101000a81548160ff02191690831515021790555050507f2170fee8e65b01596ec56f4b4df98e903e2baf55bb74a163480d31de5ce8302560015f8054905061079091906111b4565b84836040516107a1939291906111e7565b60405180910390a1505050565b5f604051905090565b5f80fd5b5f80fd5b5f819050919050565b6107d1816107bf565b81146107db575f80fd5b50565b5f813590506107ec816107c8565b92915050565b5f60208284031215610807576108066107b7565b5b5f610814848285016107de565b91505092915050565b5f73ffffffffffffffffffffffffffffffffffffffff82169050919050565b5f6108468261081d565b9050919050565b6108568161083c565b82525050565b5f81519050919050565b5f82825260208201905092915050565b5f5b83811015610893578082015181840152602081019050610878565b5f8484015250505050565b5f601f19601f8301169050919050565b5f6108b88261085c565b6108c28185610866565b93506108d2818560208601610876565b6108db8161089e565b840191505092915050565b6108ef816107bf565b82525050565b5f8115159050919050565b610909816108f5565b82525050565b5f60c0820190506109225f83018961084d565b818103602083015261093481886108ae565b9050818103604083015261094881876108ae565b905061095760608301866108e6565b61096460808301856108e6565b61097160a0830184610900565b979650505050505050565b5f81519050919050565b5f82825260208201905092915050565b5f819050602082019050919050565b6109ae8161083c565b82525050565b5f82825260208201905092915050565b5f6109ce8261085c565b6109d881856109b4565b93506109e8818560208601610876565b6109f18161089e565b840191505092915050565b610a05816107bf565b82525050565b610a14816108f5565b82525050565b5f60c083015f830151610a2f5f8601826109a5565b5060208301518482036020860152610a4782826109c4565b91505060408301518482036040860152610a6182826109c4565b9150506060830151610a7660608601826109fc565b506080830151610a8960808601826109fc565b5060a0830151610a9c60a0860182610a0b565b508091505092915050565b5f610ab28383610a1a565b905092915050565b5f602082019050919050565b5f610ad08261097c565b610ada8185610986565b935083602082028501610aec85610996565b805f5b85811015610b275784840389528151610b088582610aa7565b9450610b1383610aba565b925060208a01995050600181019050610aef565b50829750879550505050505092915050565b5f6020820190508181035f830152610b518184610ac6565b905092915050565b5f80fd5b5f80fd5b7f4e487b71000000000000000000000000000000000000000000000000000000005f52604160045260245ffd5b610b978261089e565b810181811067ffffffffffffffff82111715610bb657610bb5610b61565b5b80604052505050565b5f610bc86107ae565b9050610bd48282610b8e565b919050565b5f67ffffffffffffffff821115610bf357610bf2610b61565b5b610bfc8261089e565b9050602081019050919050565b828183375f83830152505050565b5f610c29610c2484610bd9565b610bbf565b905082815260208101848484011115610c4557610c44610b5d565b5b610c50848285610c09565b509392505050565b5f82601f830112610c6c57610c6b610b59565b5b8135610c7c848260208601610c17565b91505092915050565b5f805f60608486031215610c9c57610c9b6107b7565b5b5f84013567ffffffffffffffff811115610cb957610cb86107bb565b5b610cc586828701610c58565b935050602084013567ffffffffffffffff811115610ce657610ce56107bb565b5b610cf286828701610c58565b9250506040610d03868287016107de565b9150509250925092565b7f4e487b71000000000000000000000000000000000000000000000000000000005f52602260045260245ffd5b5f6002820490506001821680610d5157607f821691505b602082108103610d6457610d63610d0d565b5b50919050565b7f4e487b71000000000000000000000000000000000000000000000000000000005f52603260045260245ffd5b7f43616d706169676e20656e6465640000000000000000000000000000000000005f82015250565b5f610dcb600e83610866565b9150610dd682610d97565b602082019050919050565b5f6020820190508181035f830152610df881610dbf565b9050919050565b7f4e6f204554482073656e740000000000000000000000000000000000000000005f82015250565b5f610e33600b83610866565b9150610e3e82610dff565b602082019050919050565b5f6020820190508181035f830152610e6081610e27565b9050919050565b7f4e487b71000000000000000000000000000000000000000000000000000000005f52601160045260245ffd5b5f610e9e826107bf565b9150610ea9836107bf565b9250828201905080821115610ec157610ec0610e67565b5b92915050565b5f602082019050610eda5f8301846108e6565b92915050565b7f476f616c206d757374206265203e2030000000000000000000000000000000005f82015250565b5f610f14601083610866565b9150610f1f82610ee0565b602082019050919050565b5f6020820190508181035f830152610f4181610f08565b9050919050565b5f819050815f5260205f209050919050565b5f6020601f8301049050919050565b5f82821b905092915050565b5f60088302610fa47fffffffffffffffffffffffffffffffffffffffffffffffffffffffffffffffff82610f69565b610fae8683610f69565b95508019841693508086168417925050509392505050565b5f819050919050565b5f610fe9610fe4610fdf846107bf565b610fc6565b6107bf565b9050919050565b5f819050919050565b61100283610fcf565b61101661100e82610ff0565b848454610f75565b825550505050565b5f90565b61102a61101e565b611035818484610ff9565b505050565b5b818110156110585761104d5f82611022565b60018101905061103b565b5050565b601f82111561109d5761106e81610f48565b61107784610f5a565b81016020851015611086578190505b61109a61109285610f5a565b83018261103a565b50505b505050565b5f82821c905092915050565b5f6110bd5f19846008026110a2565b1980831691505092915050565b5f6110d583836110ae565b9150826002028217905092915050565b6110ee8261085c565b67ffffffffffffffff81111561110757611106610b61565b5b6111118254610d3a565b61111c82828561105c565b5f60209050601f83116001811461114d575f841561113b578287015190505b61114585826110ca565b8655506111ac565b601f19841661115b86610f48565b5f5b828110156111825784890151825560018201915060208501945060208101905061115d565b8683101561119f578489015161119b601f8916826110ae565b8355505b6001600288020188555050505b505050505050565b5f6111be826107bf565b91506111c9836107bf565b92508282039050818111156111e1576111e0610e67565b5b92915050565b5f6060820190506111fa5f8301866108e6565b818103602083015261120c81856108ae565b905061121b60408301846108e6565b94935050505056fea26469706673582212207a794e2fc7d142b102091379e7098364d99014a29c882cf5e12aaff071cf0a7d64736f6c63430008150033",
  "immutableReferences": {},
  "source": "//SPDX-License-Identifier: MIT\npragma solidity ^0.8.19;\n\ncontract Crowdfunding {\n\tstruct Campaign{\n\t\taddress payable owner;\n\t\tstring title;\n\t\tstring description;\n\t\tuint goal;\n\t\tuint amountRaised;\n\t\tbool completed;\n\t}\n\n\tCampaign[] public campaigns;\n\n\tevent CampaignCreated(uint id, string title, uint goal);\n\tevent Funded(uint id, address contributor, uint amount);\n\tevent GoalReached(uint id);\n\n\tfunction createCampaign(string memory _title, string memory _desc, uint _goal) external {\n\t\trequire(_goal > 0, \"Goal must be > 0\");\n\t\tcampaigns.push(Campaign(payable(msg.sender), _title, _desc, _goal, 0, false));\n\n\t\temit CampaignCreated(campaigns.length - 1, _title, _goal);\n\t}\n\n\tfunction fund(uint _id) external payable {\n\t\tCampaign storage campaign = campaigns[_id];\n\t\trequire(!campaign.completed, \"Campaign ended\");\n\t\trequire(msg.value > 0, \"No ETH sent\");\n\t\t\n\t\tcampaign.amountRaised += msg.value;\n\n\t\tif(campaign.amountRaised >= campaign.goal){\n\t\t\tcampaign.completed = true;\n\t\t\tcampaign.owner.transfer(campaign.amountRaised);\n\t\t\temit GoalReached(_id);\n\t\t}\n\t}\n\n\tfunction getCampaigns() external view returns (Campaign[] memory){\n\t\treturn campaigns;\n\t}\n}\n",
  "sourcePath": "/Users/fbahesna/dev/explore/blockchain/react-crowdfunding/smart-contract/contracts/Crowdfunding.sol",
  "compiler": {
    "name": "solc",
    "version": "0.8.21+commit.d9974bed.Emscripten.clang"
  },
  "schemaVersion": "3.4.16",
  "updatedAt": "2025-10-09T00:32:26.140Z",
  "networkType": "ethereum",
  "devdoc": {
    "kind": "dev",
    "methods": {},
    "version": 1
  },
  "userdoc": {
    "kind": "user",
    "methods": {},
    "version": 1
  }
}